:100000006AC0000079C0000077C0000075C0000021
:1000100073C0000071C000006FC000006DC0000020
:100020006BC0000069C0000067C0000065C0000030
:1000300063C0000061C000005FC000005DC0000040
:100040005BC0000059C0000057C0000055C0000050
:1000500053C0000007634236B79BD8A71A396856C9
:1000600018AEBAAB558C1D3CB7CC5763BD6DEDFDDA
:10007000753EF6177231BF000000803F0800000097
:10008000BE922449123EABAAAA2ABECDCCCC4C3E8D
:1000900000000080BEABAAAAAA3E00000000BF007C
:1000A0000000803F0000000000084178D3BB438778
:1000B000D1133D190E3CC3BD4282AD2B3E68EC828C
:1000C00076BED98FE1A93E4C80EFFFBE01C4FF7F11
:1000D0003F000000000011241FBECFE5D8E0DEBFC6
:1000E000CDBF20E0A0E6B0E001C01D92A036B2076F
:1000F000E1F770D50C94D40B83CF0F931F93CF935C
:10010000DF93CDB7DEB760970FB6F894DEBF0FBEB2
:10011000CDBF9B878A876C874D872E87188B0F876B
:100120008A859B85CD97F8F48FEF89831B828A851A
:100130009B85CC01A0E0B0E0BC01CD010E94C708C6
:10014000DC01CB0120E030E048E850E4BC01CD0107
:100150000E947D09DC01CB01BC01CD01ECD7DC01A3
:10016000CB018A83D3C08A859B858937910548F561
:100170008FEF8A831B828A859B85CC97CC01A0E078
:10018000B0E0BC01CD010E94C708DC01CB0120E03A
:1001900030E048E850E4BC01CD010E947D09DC015B
:1001A000CB019C01AD0160E070E08FE793E45AD78A
:1001B000DC01CB01BC01CD01BED7DC01CB018983C1
:1001C000A5C08A859B85853B910500F519828FEF37
:1001D0008A838A859B8588579109CC01A0E0B0E08D
:1001E000BC01CD01D4D7DC01CB0120E030E048E8F0
:1001F00050E4BC01CD010E947D09DC01CB01BC01B2
:10020000CD0199D7DC01CB018B8380C08A859B858A
:10021000813F910548F519828FEF8B838A859B85F5
:10022000845B9109CC01A0E0B0E0BC01CD01AFD767
:10023000DC01CB0120E030E048E850E4BC01CD0116
:100240000E947D09DC01CB019C01AD0160E070E002
:100250008FE793E407D7DC01CB01BC01CD016BD75D
:10026000DC01CB018A8352C08A859B858D32914007
:1002700000F51A828FEF8B838A859B85805F9109B9
:10028000CC01A0E0B0E0BC01CD0181D7DC01CB0105
:1002900020E030E048E850E4BC01CD010E947D0937
:1002A000DC01CB01BC01CD0146D7DC01CB01898348
:1002B0002DC08A859B858836914040F58FEF8983D4
:1002C0001A828A859B858C529140CC01A0E0B0E0D7
:1002D000BC01CD015CD7DC01CB0120E030E048E877
:1002E00050E4BC01CD010E947D09DC01CB019C01E1
:1002F000AD0160E070E08FE793E4B4D6DC01CB01A0
:10030000BC01CD0118D7DC01CB018B8394E68C8531
:10031000592F581B852F8C878981882F90E02FEFCC
:1003200030E0281B390B8C85882F90E0289FA00196
:10033000299F500D389F500D112424E630E0CA014A
:10034000B9010E94AD0BCB019D838C838C81998177
:10035000890F89838A81882F90E02FEF30E0281B56
:10036000390B8C85882F90E0289FA001299F500D84
:10037000389F500D112424E630E0CA01B9010E94D3
:10038000AD0BCB019D838C838C819A81890F8A83ED
:100390008B81882F90E02FEF30E0281B390B8C8564
:1003A000882F90E0289FA001299F500D389F500D65
:1003B000112424E630E0CA01B9010E94AD0BCB0143
:1003C0009D838C838C819B81890F8B838D85882F66
:1003D00090E0A0E0B0E0BC01CD01D9D6DC01CB01BA
:1003E0002EE23AEB48E65FE3BC01CD01E9D7DC0140
:1003F000CB01BC01CD019FD6DC01CB018D8789816A
:100400008823A9F08981282F30E08D85882F90E0FE
:10041000289FA001299F500D389F500D112424E6DC
:1004200030E0CA01B9010E94AD0BCB0189838A81FA
:100430008823A9F08A81282F30E08D85882F90E0CD
:10044000289FA001299F500D389F500D112424E6AC
:1004500030E0CA01B9010E94AD0BCB018A838B81C8
:100460008823A9F08B81282F30E08D85882F90E09C
:10047000289FA001299F500D389F500D112424E67C
:1004800030E0CA01B9010E94AD0BCB018B838E8590
:10049000813051F48F8598892B814A81698135D0CB
:1004A00080E090E0DC0124C08981882F90E020E189
:1004B00030E0AC0102C0440F551F2A95E2F79A01C3
:1004C0008A81882F90E0982F8827282B392B8B81C1
:1004D000882F90E0822B932B092E000CAA0BBB0BCC
:1004E0008E839F83A887B9878E819F81A885B985D0
:1004F000BC01CD0160960FB6F894DEBF0FBECDBF34
:10050000DF91CF911F910F910895CF93DF93CDB7D6
:10051000DEB727970FB6F894DEBF0FBECDBF9C8322
:100520008B836D834E832F831A82198241C38E8100
:1005300088238CF488E390E02FEFFC0120830000F7
:1005400000000000000000000000000088E390E0D0
:10055000FC0110820BC088E390E02FEFFC012083A8
:100560000000000088E390E0FC0110828E81882F5B
:1005700090E080749927892B89F088E390E02FEF31
:10058000FC012083000000000000000000000000CB
:10059000000088E390E0FC0110820BC088E390E04B
:1005A0002FEFFC0120830000000088E390E0FC01B5
:1005B00010828E81882F90E080729927892B89F094
:1005C00088E390E02FEFFC01208300000000000092
:1005D000000000000000000088E390E0FC011082B1
:1005E0000BC088E390E02FEFFC01208300000000A7
:1005F00088E390E0FC0110828E81882F90E080716A
:100600009927892B89F088E390E02FEFFC01208364
:10061000000000000000000000000000000088E36F
:1006200090E0FC0110820BC088E390E02FEFFC010A
:1006300020830000000088E390E0FC0110828E819E
:10064000882F90E088709927892B89F088E390E0C3
:100650002FEFFC01208300000000000000000000DC
:100660000000000088E390E0FC0110820BC088E3EA
:1006700090E02FEFFC0120830000000088E390E071
:10068000FC0110828E81882F90E084709927892B3D
:1006900089F088E390E02FEFFC0120830000000048
:1006A0000000000000000000000088E390E0FC0172
:1006B00010820BC088E390E02FEFFC012083000044
:1006C000000088E390E0FC0110828E81882F90E08A
:1006D00082709927892B89F088E390E02FEFFC0145
:1006E0002083000000000000000000000000000067
:1006F00088E390E0FC0110820BC088E390E02FEFCC
:10070000FC0120830000000088E390E0FC011082DF
:100710008E81882F90E081709927892B89F088E35A
:1007200090E02FEFFC01208300000000000000009B
:1007300000000000000088E390E0FC0110820BC084
:1007400088E390E02FEFFC0120830000000088E3A5
:1007500090E0FC0110828D8188238CF488E390E086
:100760002FEFFC01208300000000000000000000CB
:100770000000000088E390E0FC0110820BC088E3D9
:1007800090E02FEFFC0120830000000088E390E060
:10079000FC0110828D81882F90E080749927892B2D
:1007A00089F088E390E02FEFFC0120830000000037
:1007B0000000000000000000000088E390E0FC0161
:1007C00010820BC088E390E02FEFFC012083000033
:1007D000000088E390E0FC0110828D81882F90E07A
:1007E00080729927892B89F088E390E02FEFFC0134
:1007F0002083000000000000000000000000000056
:1008000088E390E0FC0110820BC088E390E02FEFBA
:10081000FC0120830000000088E390E0FC011082CE
:100820008D81882F90E080719927892B89F088E34A
:1008300090E02FEFFC01208300000000000000008A
:1008400000000000000088E390E0FC0110820BC073
:1008500088E390E02FEFFC0120830000000088E394
:1008600090E0FC0110828D81882F90E0887099279C
:10087000892B89F088E390E02FEFFC0120830000B2
:1008800000000000000000000000000088E390E08D
:10089000FC0110820BC088E390E02FEFFC01208365
:1008A0000000000088E390E0FC0110828D81882F19
:1008B00090E084709927892B89F088E390E02FEFEE
:1008C000FC01208300000000000000000000000088
:1008D000000088E390E0FC0110820BC088E390E008
:1008E0002FEFFC0120830000000088E390E0FC0172
:1008F00010828D81882F90E082709927892B89F052
:1009000088E390E02FEFFC0120830000000000004E
:10091000000000000000000088E390E0FC0110826D
:100920000BC088E390E02FEFFC0120830000000063
:1009300088E390E0FC0110828D81882F90E0817027
:100940009927892B89F088E390E02FEFFC01208321
:10095000000000000000000000000000000088E32C
:1009600090E0FC0110820BC088E390E02FEFFC01C7
:1009700020830000000088E390E0FC0110828F815A
:1009800088238CF488E390E02FEFFC0120830000A3
:1009900000000000000000000000000088E390E07C
:1009A000FC0110820BC088E390E02FEFFC01208354
:1009B0000000000088E390E0FC0110828F81882F06
:1009C00090E080749927892B89F088E390E02FEFDD
:1009D000FC01208300000000000000000000000077
:1009E000000088E390E0FC0110820BC088E390E0F7
:1009F0002FEFFC0120830000000088E390E0FC0161
:100A000010828F81882F90E080729927892B89F03E
:100A100088E390E02FEFFC0120830000000000003D
:100A2000000000000000000088E390E0FC0110825C
:100A30000BC088E390E02FEFFC0120830000000052
:100A400088E390E0FC0110828F81882F90E0807114
:100A50009927892B89F088E390E02FEFFC01208310
:100A6000000000000000000000000000000088E31B
:100A700090E0FC0110820BC088E390E02FEFFC01B6
:100A800020830000000088E390E0FC0110828F8149
:100A9000882F90E088709927892B89F088E390E06F
:100AA0002FEFFC0120830000000000000000000088
:100AB0000000000088E390E0FC0110820BC088E396
:100AC00090E02FEFFC0120830000000088E390E01D
:100AD000FC0110828F81882F90E084709927892BE8
:100AE00089F088E390E02FEFFC01208300000000F4
:100AF0000000000000000000000088E390E0FC011E
:100B000010820BC088E390E02FEFFC0120830000EF
:100B1000000088E390E0FC0110828F81882F90E034
:100B200082709927892B89F088E390E02FEFFC01F0
:100B30002083000000000000000000000000000012
:100B400088E390E0FC0110820BC088E390E02FEF77
:100B5000FC0120830000000088E390E0FC0110828B
:100B60008F81882F90E081709927892B89F088E305
:100B700090E02FEFFC012083000000000000000047
:100B800000000000000088E390E0FC0110820BC030
:100B900088E390E02FEFFC0120830000000088E351
:100BA00090E0FC01108289819A8101969A83898361
:100BB00029813A818B819C812817390708F4B7CCA9
:100BC000000027960FB6F894DEBF0FBECDBFDF91B1
:100BD000CF9108950F931F93CF93DF93CDB7DEB7D7
:100BE000EC970FB6F894DEBF0FBECDBF15D280E3F1
:100BF00090E0FC018081882F90E081709927892BFB
:100C000009F472C020E040E065E084E190E07DDC22
:100C100080E090E0A8ECB2E4898B9A8BAB8BBC8B24
:100C200020E030E04AE755E469897A898B899C891C
:100C300064D3DC01CB018D8B9E8BAF8BB88F20E012
:100C400030E040E85FE36D897E898F89988D6FD2AF
:100C500088232CF481E090E09A8F898F3BC020E0BC
:100C60003FEF4FE757E46D897E898F89988D41D397
:100C700018163CF520E030E040E251E469897A89B9
:100C80008B899C893AD3DC01CB01BC01CD0153D2C5
:100C9000DC01CB019A8F898F0FC080E991E09C8F96
:100CA0008B8F8B8D9C8D0197F1F79C8F8B8F898D0E
:100CB0009A8D01979A8F898F898D9A8D892B69F7E3
:100CC00013C06D897E898F89988D35D2DC01CB0167
:100CD0009A8F898F898D9A8D9E8F8D8F8D8D9E8D08
:100CE0000197F1F79E8F8D8F80E390E0FC0180816A
:100CF000882F90E082709927892B09F474C004E151
:100D000010E021E045E064E68CE291E0F6D980E075
:100D100090E0A8ECB2E489839A83AB83BC8320E0A3
:100D200030E04AE755E469817A818B819C81E5D284
:100D3000DC01CB018F8F98A3A9A3BAA320E030E0F8
:100D400040E85FE36F8D78A189A19AA1F0D1882353
:100D50002CF481E090E09CA38BA33BC020E03FEF0C
:100D60004FE757E46F8D78A189A19AA1C2D21816D6
:100D70003CF520E030E040E251E469817A818B81EA
:100D80009C81BBD2DC01CB01BC01CD01D4D1DC0103
:100D9000CB019CA38BA30FC080E991E09EA38DA300
:100DA0008DA19EA10197F1F79EA38DA38BA19CA17C
:100DB00001979CA38BA38BA19CA1892B69F713C0DE
:100DC0006F8D78A189A19AA1B6D1DC01CB019CA33A
:100DD0008BA38BA19CA198A78FA38FA198A5019706
:100DE000F1F798A78FA380E390E0FC018081882F22
:100DF00090E084709927892B09F490C000E010E0FE
:100E000020E045E064E684EB90E077D9DC01CB019B
:100E100089879A87AB87BC87298589859A85AB8521
:100E2000BC85892F9A2FAB2FBB27382F89859A85B0
:100E3000AB85BC85CD01AA27BB27432F682F84E152
:100E400090E063DB80E090E0A8ECB2E48D839E83C9
:100E5000AF83B88720E030E04AE755E46D817E81BA
:100E60008F8198854AD2DC01CB0189A79AA7ABA7CD
:100E7000BCA720E030E040E85FE369A57AA58BA538
:100E80009CA555D188232CF481E090E09EA78DA7E6
:100E90003BC020E03FEF4FE757E469A57AA58BA55B
:100EA0009CA527D218163CF520E030E040E251E442
:100EB0006D817E818F81988520D2DC01CB01BC01C0
:100EC000CD0139D1DC01CB019EA78DA70FC080E9F0
:100ED00091E098AB8FA78FA598A90197F1F798ABF0
:100EE0008FA78DA59EA501979EA78DA78DA59EA5D1
:100EF000892B69F713C069A57AA58BA59CA51BD181
:100F0000DC01CB019EA78DA78DA59EA59AAB89ABD1
:100F100089A99AA90197F1F79AAB89AB80E390E090
:100F2000FC018081882F90E088709927892B09F433
:100F30005ECE20E040E060E084E190E0E6DA80E030
:100F400090E0A8ECB2E48D879E87AF87B88B20E055
:100F500030E04AE755E46D857E858F859889CDD14F
:100F6000DC01CB018BAB9CABADABBEAB20E030E08A
:100F700040E85FE36BA97CA98DA99EA9D8D08823FE
:100F80002CF481E090E098AF8FAB3BC020E03FEFC6
:100F90004FE757E46BA97CA98DA99EA9AAD1181681
:100FA0003CF520E030E040E251E46D857E858F85A0
:100FB0009889A3D1DC01CB01BC01CD01BCD0DC01FF
:100FC000CB0198AF8FAB0FC080E991E09AAF89AFAA
:100FD00089AD9AAD0197F1F79AAF89AF8FA998AD16
:100FE000019798AF8FAB8FA998AD892B69F713C084
:100FF0006BA97CA98DA99EA99ED0DC01CB0198AFDD
:101000008FAB8FA998AD9CAF8BAF8BAD9CAD01978B
:10101000F1F79CAF8BAFEBCDCF93DF93CDB7DEB7BE
:1010200088E290E0FC01108287E390E02FEFFC0162
:10103000208388E390E0FC01108284E390E02FEFAE
:10104000FC01208385E390E0FC01108281E390E0C5
:10105000FC01108282E390E0FC0110820000DF912D
:10106000CF9108955058BB27AA270ED008C1F9D0B8
:1010700030F0FED020F031F49F3F11F41EF4EEC0AA
:101080000EF4E095E7FBE4C0E92F0AD180F3BA172C
:10109000620773078407950718F071F49EF522C163
:1010A0000EF4E0950B2EBA2FA02D0B01B901900183
:1010B0000C01CA01A0011124FF27591B99F0593FC7
:1010C00050F4503E68F11A16F040A22F232F342F0F
:1010D0004427585FF3CF469537952795A795F0405D
:1010E0005395C9F77EF41F16BA0B620B730B840B72
:1010F000BAF09150A1F0FF0FBB1F661F771F881F2A
:10110000C2F70EC0BA0F621F731F841F48F4879581
:1011100077956795B795F7959E3F08F0B3CF939570
:10112000880F08F09927EE0F9795879508956CD052
:1011300008F481E00895BCD088F09F5790F0B92F53
:101140009927B751A0F0D1F0660F771F881F991F1C
:101150001AF0BA95C9F712C0B13081F0C3D0B1E02E
:101160000895C0C0672F782F8827B85F39F0B93F3E
:10117000CCF3869577956795B395D9F73EF490951E
:101180008095709561957F4F8F4F9F4F0895E8949C
:1011900009C097FB3EF490958095709561957F4FBF
:1011A0008F4F9F4F9923A9F0F92F96E9BB2793956D
:1011B000F695879577956795B795F111F8CFFAF47D
:1011C000BB0F11F460FF1BC06F5F7F4F8F4F9F4FAE
:1011D00016C0882311F096E911C0772321F09EE80C
:1011E000872F762F05C0662371F096E8862F70E072
:1011F00060E02AF09A95660F771F881FDAF7880F4C
:101200009695879597F90895990F0008550FAA0BA1
:10121000E0E8FEEF16161706E807F907C0F0121609
:101220001306E407F50798F0621B730B840B950B0C
:1012300039F40A2661F0232B242B252B21F4089561
:101240000A2609F4A140A6958FEF811D811D0895FE
:1012500097F99F6780E870E060E008959FEF80EC69
:10126000089500240A94161617061806090608950C
:1012700000240A9412161306140605060895092E72
:101280000394000C11F4882352F0BB0F40F4BF2BE1
:1012900011F460FF04C06F5F7F4F8F4F9F4F089521
:1012A00057FD9058440F551F59F05F3F71F0479517
:1012B000880F97FB991F61F09F3F79F087950895FC
:1012C000121613061406551FF2CF4695F1DF08C01B
:1012D000161617061806991FF1CF86957105610538
:1012E00008940895E894BB2766277727CB0197F9E0
:1012F00008958ADF08F48FEF08950BD0C0CFB1DFD7
:1013000028F0B6DF18F0952309F0A2CFA7CF11245B
:10131000EACFC6DFA0F3959FD1F3950F50E0551F9C
:10132000629FF001729FBB27F00DB11D639FAA273A
:10133000F00DB11DAA1F649F6627B00DA11D661F89
:10134000829F2227B00DA11D621F739FB00DA11DAA
:10135000621F839FA00D611D221F749F3327A00D64
:10136000611D231F849F600D211D822F762F6A2F00
:1013700011249F5750408AF0E1F088234AF0EE0F85
:10138000FF1FBB1F661F771F881F91505040A9F792
:101390009E3F510570F05CCFA6CF5F3FECF3983EC7
:1013A000DCF3869577956795B795F795E7959F5FF9
:1013B000C1F7FE2B880F911D9695879597F9089593
:1013C000FA01EE0FFF1F30962105310599F16115E5
:1013D000710561F48038BFE39B0749F16894903848
:1013E000810561F08038BFEF9B0741F0992342F5FA
:1013F000FF3FE1053105210511F1E8940894E795D7
:10140000D901AA2329F4AB2FBE2FF85FD0F310C067
:10141000FF5F70F4A695E0F7F73950F019F0FF3A46
:1014200038F49F779F930CD00F9007FC9058089545
:101430003EF014CF60E070E080E89FE308954FE74E
:101440009F775F934F933F932F939ED02F913F9120
:101450004F915F9152DF05C019F40EF0F9CE42CFE3
:10146000FDCE26DFC8F39638C0F707F80F92E89450
:101470002BE33AEA48EB5FE74EDF0F920F920F92B1
:101480004DB75EB70F92C0D0E4E5F0E016D04F91B3
:101490005F91EF91FF91E595EE1FFF1F49F0FE5719
:1014A000E0684427EE0F441FFA95E1F74195550B8C
:1014B00032D00F9007FE26C00895DF93CF931F937D
:1014C0000F93FF92EF92DF927B018C01689405C02D
:1014D000DA2EEF011EDFFE01E894A59125913591EA
:1014E00045915591AEF3EF01CFDDFE019701A801C3
:1014F000DA9479F7DF90EF90FF900F911F91CF91E1
:10150000DF9108959B01AC0160E070E080E89FE30B
:10151000AEC09ECE14C1CCDEE8F39923D9F3940F6C
:10152000511DBBF39150504094F059F0882332F094
:10153000660F771F881F91505040C1F79E3F51059D
:1015400044F7880F911D9695879597F908955F3F09
:10155000ACF0983E9CF0BB27869577956795B7953C
:1015600008F4B1609395C1F7BB0F58F711F460FF11
:10157000E8CF6F5F7F4F8F4F9F4FE3CFB4CE0EF01A
:10158000DEC06CCE689464CE93DEC8F39923D1F3A9
:10159000C6F3DF93CF931F930F93FF92C92FDD27DD
:1015A00088232AF02197660F771F881FDAF720E03B
:1015B00030E040E85FEB9FE3883920F0803E30F078
:1015C00021968F7750DDECE7F0E003C04CDDE9EACF
:1015D000F0E073DF8B01BE01EC01FB2E6F57710948
:1015E0007595771F880B990BD4DD28E132E741E32D
:1015F0005FE38FDEAF2D9801AE01FF900F911F9139
:10160000CF91DF9141DD3BCEFA01DC01AA0FBB1F78
:101610009B01AC01BF5728F4222733274427507879
:101620001FC0B75188F4AB2F0024469537952795F6
:10163000011CA395D2F3002069F0220F331F441F31
:10164000B395DAF30DD00ECD61307105A0E88A07AD
:10165000B94630F49B01AC0166277727882790783C
:10166000309621F0208331834283538308950CD038
:1016700006CEFEDD40F0F5DD30F021F45F3F19F0DD
:10168000E7CD511130CEEACD0BDE98F39923C9F3A3
:101690005523B1F3951B550BBB27AA276217730778
:1016A000840738F09F5F5F4F220F331F441FAA1F2C
:1016B000A9F333D00E2E3AF0E0E830D091505040EC
:1016C000E695001CCAF729D0FE2F27D0660F771F9A
:1016D000881FBB1F261737074807AB07B0E809F07C
:1016E000BB0B802DBF01FF2793585F4F2AF09E3F11
:1016F000510568F0ADCDF7CD5F3FECF3983EDCF3DC
:10170000869577956795B795F7959F5FC9F7880F89
:10171000911D9695879597F90895E1E0660F771FDB
:10172000881FBB1F621773078407BA0720F0621B6C
:10173000730B840BBA0BEE1F88F7E09508959F3F5B
:1017400031F0915020F4879577956795B795880F7C
:10175000911D9695879597F9089597FB072E16F496
:10176000009406D077FD08D00BD007FC05D03EF4DE
:10177000909581959F4F0895709561957F4F08953D
:10178000AA1BBB1B51E107C0AA1FBB1FA617B707A7
:1017900010F0A61BB70B881F991F5A95A9F78095C3
:0C17A0009095BC01CD010895F894FFCF96
:00000001FF
