:100000000C942A000C9447000C9447000C94470071
:100010000C9447000C9447000C9447000C94470044
:100020000C9447000C9447000C94CC000C944700AF
:100030000C9447000C9447000C9447000C94470024
:100040000C9447000C9447000C9447000C94470014
:100050000C94470011241FBECFE5D8E0DEBFCDBF12
:1000600010E0A0E6B0E0EEE1F2E002C005900D92F3
:10007000A036B107D9F720E0A0E6B0E001C01D929C
:10008000A436B207E1F70E9449000C940D010C94CC
:100090000000CF93DF9300D0CDB7DEB70E94790088
:1000A00010926100109260001A8219820E94B600BC
:1000B0000E94A80089819A8101969A838983898107
:1000C0009A81C29729F488E390E020EFFC01208315
:1000D00089819A818436910539F488E390E02FE094
:1000E000FC0120831A8219828AE090E00E94F300CA
:1000F000E1CFCF93DF93CDB7DEB788E290E020E881
:10010000FC0120838AE390E02FE1FC0120838BE354
:1001100090E0FC01108287E390E02FEFFC01208348
:1001200088E390E0FC01108284E390E0FC011082FF
:1001300085E390E0FC01108281E390E0FC011082F5
:1001400082E390E0FC0110820000DF91CF910895DE
:10015000CF93DF93CDB7DEB789E590E022E0FC01D5
:10016000208378940000DF91CF910895CF93DF939F
:10017000CDB7DEB783E590E02BE0FC01208382E57C
:1001800090E0FC0110828CE590E02EE7FC012083DA
:100190000000DF91CF9108951F920F9200905F00B1
:1001A0000F9211248F939F93CF93DF93CDB7DEB738
:1001B0008091600090916100892B51F080916000E6
:1001C000909161000197909361008093600000001E
:1001D0000000DF91CF919F918F910F9000925F006F
:1001E0000F901F901895CF93DF9300D0CDB7DEB757
:1001F0009A83898389819A819093610080936000BA
:1002000000008091600090916100892BD1F700007F
:0E0210000F900F90DF91CF910895F894FFCFDB
:00000001FF
