:1000000045C000005EC000005CC000005AC0000097
:1000100058C0000056C0000054C0000052C000008C
:1000200050C000004EC000004CC000004AC000009C
:1000300048C0000046C0000044C00000C5C0000029
:1000400040C000003EC000003CC000003AC00000BC
:1000500038C0000036C0000034C0000032C00000CC
:1000600030C000002EC000002CC000002AC00000DC
:1000700028C0000026C0000024C0000022C00000EC
:1000800020C000001EC000001CC0000011241FBEC4
:10009000CFEFD0E1DEBFCDBF11E0A0E0B1E0EEE4F4
:1000A000F2E002C005900D92A030B107D9F721E02F
:1000B000A0E0B1E001C01D92A430B207E1F702D088
:1000C000C4C09ECFCF93DF9300D0CDB7DEB726D08C
:1000D00010920101109200011A8219825FD050D053
:1000E00089819A8101969A83898389819A81C297AD
:1000F00029F488E390E020EFFC01208389819A8134
:100100008436910539F488E390E02FE0FC012083E8
:100110001A8219828AE090E07ED0E2CFCF93DF93FB
:10012000CDB7DEB788E290E020E8FC0120838AE3C7
:1001300090E02FE0FC0120838BE390E020EFFC01B6
:10014000208387E390E02FEFFC01208388E390E099
:10015000FC01108284E390E0FC01108285E390E0D2
:100160002FEFFC01208381E390E0FC01108282E309
:1001700090E02FEFFC0120830000DF91CF910895E4
:10018000CF93DF93CDB7DEB787E590E022E0FC01A7
:10019000208378940000DF91CF910895CF93DF936F
:1001A000CDB7DEB783E590E02BE0FC01208382E54C
:1001B00090E0FC01108281E590E02EE7FC012083B5
:1001C0000000DF91CF9108951F920F9200905F0081
:1001D0000F9211248F939F93CF93DF93CDB7DEB708
:1001E0008091000190910101892B51F080910001D3
:1001F000909101010197909301018093000100000B
:100200000000DF91CF919F918F910F9000925F003E
:100210000F901F901895CF93DF9300D0CDB7DEB726
:100220009A83898389819A81909301018093000147
:1002300000008091000190910101892BD1F700000D
:0E0240000F900F90DF91CF910895F894FFCFAB
:00000001FF
