S012000041746D656761323536312E73726563F5
S11300006AC0000084C0000082C0000080C00000FC
S11300107EC000007CC000007AC0000078C00000F0
S113002076C0000074C0000072C0000070C0000000
S11300306EC000006CC000006AC0000068C0000010
S113004066C0000064C0000062C0000060C0000020
S11300505EC0000007634236B79BD8A71A396856BA
S113006018AEBAAB558C1D3CB7CC5763BD6DEDFDD6
S1130070753EF6177231BF000000803F0800000093
S1130080BE922449123EABAAAA2ABECDCCCC4C3E89
S113009000000080BEABAAAAAA3E00000000BF0078
S11300A00000803F0000000000084178D3BB438774
S11300B0D1133D190E3CC3BD4282AD2B3E68EC8288
S11300C076BED98FE1A93E4C80EFFFBE01C4FF7F0D
S11300D03F000000000011241FBECFE5D8E0DEBFC2
S11300E0CDBF10E0A0E6B0E0E8E6F5E102C005907F
S11300F00D92A237B107D9F720E0A2E7B0E001C022
S11301001D92A937B207E1F71FD50C94B20A78CF34
S11301100F931F93CF93DF93CDB7DEB760970FB6DE
S1130120F894DEBF0FBECDBF9B878A876C874D874F
S11301302E87188B0F878A859B85CD97E8F48FEFE0
S113014089831B828A859B85CC01A0E0B0E0BC0139
S1130150CD01FBD6DC01CB0120E030E048E850E4DF
S1130160BC01CD01A8D7DC01CB01BC01CD01C1D6B6
S1130170DC01CB018A83CDC08A859B8589379105B3
S113018038F58FEF8A831B828A859B85CC97CC01B7
S1130190A0E0B0E0BC01CD01D8D6DC01CB0120E069
S11301A030E048E850E4BC01CD0185D7DC01CB0147
S11301B09C01AD0160E070E08FE793E431D6DC018F
S11301C0CB01BC01CD0195D6DC01CB018983A1C053
S11301D08A859B85853B9105F8F419828FEF8A8384
S11301E08A859B8588579109CC01A0E0B0E0BC01C9
S11301F0CD01ABD6DC01CB0120E030E048E850E48F
S1130200BC01CD0158D7DC01CB01BC01CD0171D6B5
S1130210DC01CB018B837DC08A859B85813F910561
S113022040F519828FEF8B838A859B85845B9109C6
S1130230CC01A0E0B0E0BC01CD0187D6DC01CB014C
S113024020E030E048E850E4BC01CD0134D7DC01C3
S1130250CB019C01AD0160E070E08FE793E4E0D551
S1130260DC01CB01BC01CD0144D6DC01CB018A8386
S113027050C08A859B858D329140F8F41A828FEFA5
S11302808B838A859B85805F9109CC01A0E0B0E0D7
S1130290BC01CD015AD6DC01CB0120E030E048E8B6
S11302A050E4BC01CD0107D7DC01CB01BC01CD0179
S11302B020D6DC01CB0189832CC08A859B858836B6
S11302C0914038F58FEF89831A828A859B858C52F9
S11302D09140CC01A0E0B0E0BC01CD0136D6DC01F8
S11302E0CB0120E030E048E850E4BC01CD01E3D686
S11302F0DC01CB019C01AD0160E070E08FE793E489
S11303008FD5DC01CB01BC01CD01F3D5DC01CB01E0
S11303108B8394E68C85592F581B852F8C87898174
S1130320882F90E02FEF30E0281B390B8C85882F25
S113033090E0289FA001299F500D389F500D112453
S113034024E630E0CA01B9010E948B0ACB019D83E7
S11303508C838C819981890F89838A81882F90E08D
S11303602FEF30E0281B390B8C85882F90E0289FD5
S1130370A001299F500D389F500D112424E630E030
S1130380CA01B9010E948B0ACB019D838C838C81A5
S11303909A81890F8A838B81882F90E02FEF30E038
S11303A0281B390B8C85882F90E0289FA001299F5A
S11303B0500D389F500D112424E630E0CA01B901D4
S11303C00E948B0ACB019D838C838C819B81890F36
S11303D08B838D85882F90E0A0E0B0E0BC01CD0137
S11303E0B4D5DC01CB0126E636E646E65FE3BC0184
S11303F0CD01C4D6DC01CB01BC01CD017AD5DC0131
S1130400CB018D8789818823A9F08981282F30E049
S11304108D85882F90E0289FA001299F500D389F3B
S1130420500D112424E630E0CA01B9010E948B0A60
S1130430CB0189838A818823A9F08A81282F30E01F
S11304408D85882F90E0289FA001299F500D389F0B
S1130450500D112424E630E0CA01B9010E948B0A30
S1130460CB018A838B818823A9F08B81282F30E0EC
S11304708D85882F90E0289FA001299F500D389FDB
S1130480500D112424E630E0CA01B9010E948B0A00
S1130490CB018B838E85882351F08F8598892B819E
S11304A04A81698135D080E090E0DC0124C08981F3
S11304B0882F90E020E130E0AC0102C0440F551FCA
S11304C02A95E2F79A018A81882F90E0982F88274D
S11304D0282B392B8B81882F90E0822B932B092E8C
S11304E0000CAA0BBB0B8E839F83A887B9878E81D0
S11304F09F81A885B985BC01CD0160960FB6F8949B
S1130500DEBF0FBECDBFDF91CF911F910F91089534
S1130510CF93DF9300D000D01F92CDB7DEB79A837C
S113052089836B834C832D831092760080917600AF
S11305308F5F809376008C81882394F488E390E025
S11305402FEFFC01208300000000000000000000E9
S113055000000000000088E390E0FC01108209C064
S113056088E390E02FEFFC01208388E390E0FC0116
S113057010828C81882F90E080749927892B81F0D8
S113058088E390E02FEFFC012083000000000000CE
S113059000000000000088E390E0FC01108209C024
S11305A088E390E02FEFFC01208388E390E0FC01D6
S11305B010828C81882F90E080729927892B81F09A
S11305C088E390E02FEFFC0120830000000000008E
S11305D000000000000088E390E0FC01108209C0E4
S11305E088E390E02FEFFC01208388E390E0FC0196
S11305F010828C81882F90E080719927892B81F05B
S113060088E390E02FEFFC0120830000000000004D
S113061000000000000088E390E0FC01108209C0A3
S113062088E390E02FEFFC01208388E390E0FC0155
S113063010828C81882F90E088709927892B81F013
S113064088E390E02FEFFC0120830000000000000D
S113065000000000000088E390E0FC01108209C063
S113066088E390E02FEFFC01208388E390E0FC0115
S113067010828C81882F90E084709927892B81F0D7
S113068088E390E02FEFFC012083000000000000CD
S113069000000000000088E390E0FC01108209C023
S11306A088E390E02FEFFC01208388E390E0FC01D5
S11306B010828C81882F90E082709927892B81F099
S11306C088E390E02FEFFC0120830000000000008D
S11306D000000000000088E390E0FC01108209C0E3
S11306E088E390E02FEFFC01208388E390E0FC0195
S11306F010828C81882F90E081709927892B81F05A
S113070088E390E02FEFFC0120830000000000004C
S113071000000000000088E390E0FC01108209C0A2
S113072088E390E02FEFFC01208388E390E0FC0154
S113073010828B81882384F488E390E02FEFFC01FE
S1130740208300000000000000000000000088E397
S113075090E0FC01108209C088E390E02FEFFC01D7
S1130760208388E390E0FC0110828B81882F90E045
S113077080749927892B81F088E390E02FEFFC01A6
S1130780208300000000000000000000000088E357
S113079090E0FC01108209C088E390E02FEFFC0197
S11307A0208388E390E0FC0110828B81882F90E005
S11307B080729927892B81F088E390E02FEFFC0168
S11307C0208300000000000000000000000088E317
S11307D090E0FC01108209C088E390E02FEFFC0157
S11307E0208388E390E0FC0110828B81882F90E0C5
S11307F080719927892B81F088E390E02FEFFC0129
S1130800208300000000000000000000000088E3D6
S113081090E0FC01108209C088E390E02FEFFC0116
S1130820208388E390E0FC0110828B81882F90E084
S113083088709927892B81F088E390E02FEFFC01E1
S1130840208300000000000000000000000088E396
S113085090E0FC01108209C088E390E02FEFFC01D6
S1130860208388E390E0FC0110828B81882F90E044
S113087084709927892B81F088E390E02FEFFC01A5
S1130880208300000000000000000000000088E356
S113089090E0FC01108209C088E390E02FEFFC0196
S11308A0208388E390E0FC0110828B81882F90E004
S11308B082709927892B81F088E390E02FEFFC0167
S11308C0208300000000000000000000000088E316
S11308D090E0FC01108209C088E390E02FEFFC0156
S11308E0208388E390E0FC0110828B81882F90E0C4
S11308F081709927892B81F088E390E02FEFFC0128
S1130900208300000000000000000000000088E3D5
S113091090E0FC01108209C088E390E02FEFFC0115
S1130920208388E390E0FC0110828D81882384F485
S113093088E390E02FEFFC0120830000000000001A
S113094000000000000088E390E0FC01108209C070
S113095088E390E02FEFFC01208388E390E0FC0122
S113096010828D81882F90E080749927892B81F0E3
S113097088E390E02FEFFC012083000000000000DA
S113098000000000000088E390E0FC01108209C030
S113099088E390E02FEFFC01208388E390E0FC01E2
S11309A010828D81882F90E080729927892B81F0A5
S11309B088E390E02FEFFC0120830000000000009A
S11309C000000000000088E390E0FC01108209C0F0
S11309D088E390E02FEFFC01208388E390E0FC01A2
S11309E010828D81882F90E080719927892B81F066
S11309F088E390E02FEFFC0120830000000000005A
S1130A0000000000000088E390E0FC01108209C0AF
S1130A1088E390E02FEFFC01208388E390E0FC0161
S1130A2010828D81882F90E088709927892B81F01E
S1130A3088E390E02FEFFC01208300000000000019
S1130A4000000000000088E390E0FC01108209C06F
S1130A5088E390E02FEFFC01208388E390E0FC0121
S1130A6010828D81882F90E084709927892B81F0E2
S1130A7088E390E02FEFFC012083000000000000D9
S1130A8000000000000088E390E0FC01108209C02F
S1130A9088E390E02FEFFC01208388E390E0FC01E1
S1130AA010828D81882F90E082709927892B81F0A4
S1130AB088E390E02FEFFC01208300000000000099
S1130AC000000000000088E390E0FC01108209C0EF
S1130AD088E390E02FEFFC01208388E390E0FC01A1
S1130AE010828D81882F90E081709927892B81F065
S1130AF088E390E02FEFFC01208300000000000059
S1130B0000000000000088E390E0FC01108209C0AE
S1130B1088E390E02FEFFC01208388E390E0FC0160
S1130B20108280917600282F30E089819A812817DD
S1130B30390708F4FBCC00000F900F900F900F9032
S1130B400F90DF91CF9108950F931F93CF93DF936D
S1130B50CDB7DEB7AA970FB6F894DEBF0FBECDBFF0
S1130B6039D180E390E0FC018081882F90E081708E
S1130B709927892B31F020E040E065E084E190E0A2
S1130B80C7DC80E390E0FC018081882F90E08270D4
S1130B909927892B41F004E110E021E04AE064E662
S1130BA08CE291E0B5DA80E390E0FC018081882F4B
S1130BB090E084709927892B39F100E010E020E05F
S1130BC045E064E684EB90E0A3DADC01CB018D839D
S1130BD09E83AF83B8878D819E81AF81B885CD0117
S1130BE0AA27BB2789878D819E81AF81B885892FEC
S1130BF09A2FAB2FBB278A878D818B872B854A85BC
S1130C00698584E190E084DC80E390E0FC018081EC
S1130C10882F90E088709927892B31F020E040E0FC
S1130C2060E084E690E074DC80E390E0FC01808185
S1130C30882F90E080719927892B09F43FC081E1C6
S1130C40E0E6F0E0DE015A9601900D928A95E1F714
S1130C501A8219822FC09E01265E3F4F89819A8194
S1130C60820F931FFC018081813039F420E041E040
S1130C7060E081E090E04CDC18C09E01265E3F4FAE
S1130C8089819A81820F931FFC018081823039F41B
S1130C9020E040E060E081E090E03ADC06C020E043
S1130CA040E06AE081E090E033DC89819A8101963A
S1130CB09A83898389819A8140976CF280E390E0DA
S1130CC0FC018081882F90E080729927892BA9F0FC
S1130CD01C821B820DC08B819C8105E010E021E009
S1130CE045E064E615DA8B819C8101969C838B83B5
S1130CF08B819C818836914070F380E090E0A8E479
S1130D00B2E48C879D87AE87BF8720E030E04AEF4E
S1130D1054E46C857D858E859F85CDD1DC01CB0126
S1130D20888B998BAA8BBB8B20E030E040E85FE393
S1130D30688979898A899B89D8D088232CF481E0B1
S1130D4090E09D8B8C8B3BC020E03FEF4FE757E456
S1130D50688979898A899B89AAD118163CF520E08B
S1130D6030E040E251E46C857D858E859F85A3D17A
S1130D70DC01CB01BC01CD01BCD0DC01CB019D8BDE
S1130D808C8B0FC088EC90E09F8B8E8B8E899F8913
S1130D900197F1F79F8B8E8B8C899D8901979D8B91
S1130DA08C8B8C899D89892B69F713C06889798913
S1130DB08A899B899ED0DC01CB019D8B8C8B8C898D
S1130DC09D89998F888F888D998D0197F1F7998FD7
S1130DD0888FC7CECF93DF93CDB7DEB788E290E09C
S1130DE0FC01108287E390E02FEFFC01208388E36D
S1130DF090E0FC01108284E390E02FEFFC0120835B
S1130E0085E390E0FC01108281E390E0FC01108214
S1130E1082E390E0FC0110820000DF91CF910895FD
S1130E205058BB27AA270ED008C1F9D030F0FED005
S1130E3020F031F49F3F11F41EF4EEC00EF4E0955F
S1130E40E7FBE4C0E92F0AD180F3BA1762077307FE
S1130E508407950718F071F49EF522C10EF4E0950D
S1130E600B2EBA2FA02D0B01B90190010C01CA0160
S1130E70A0011124FF27591B99F0593F50F4503E0B
S1130E8068F11A16F040A22F232F342F4427585FFD
S1130E90F3CF469537952795A795F0405395C9F715
S1130EA07EF41F16BA0B620B730B840BBAF09150CD
S1130EB0A1F0FF0FBB1F661F771F881FC2F70EC06C
S1130EC0BA0F621F731F841F48F48795779567953F
S1130ED0B795F7959E3F08F0B3CF9395880F08F028
S1130EE09927EE0F9795879508956CD008F481E0C3
S1130EF00895BCD088F09F5790F0B92F9927B75127
S1130F00A0F0D1F0660F771F881F991F1AF0BA95C9
S1130F10C9F712C0B13081F0C3D0B1E00895C0C0A8
S1130F20672F782F8827B85F39F0B93FCCF38695BF
S1130F3077956795B395D9F73EF49095809570951C
S1130F4061957F4F8F4F9F4F0895E89409C097FB99
S1130F503EF490958095709561957F4F8F4F9F4F8C
S1130F609923A9F0F92F96E9BB279395F6958795D0
S1130F7077956795B795F111F8CFFAF4BB0F11F493
S1130F8060FF1BC06F5F7F4F8F4F9F4F16C088233A
S1130F9011F096E911C0772321F09EE8872F762F70
S1130FA005C0662371F096E8862F70E060E02AF0B1
S1130FB09A95660F771F881FDAF7880F969587959D
S1130FC097F90895990F0008550FAA0BE0E8FEEF72
S1130FD016161706E807F907C0F012161306E407F9
S1130FE0F50798F0621B730B840B950B39F40A26F2
S1130FF061F0232B242B252B21F408950A2609F4D0
S1131000A140A6958FEF811D811D089597F99F67D3
S113101080E870E060E008959FEF80EC089500247C
S11310200A941616170618060906089500240A9449
S113103012161306140605060895092E0394000CCF
S113104011F4882352F0BB0F40F4BF2B11F460FF5E
S113105004C06F5F7F4F8F4F9F4F089557FD905887
S1131060440F551F59F05F3F71F04795880F97FB68
S1131070991F61F09F3F79F0879508951216130622
S11310801406551FF2CF4695F1DF08C01616170651
S11310901806991FF1CF8695710561050894089586
S11310A0E894BB2766277727CB0197F908958ADF51
S11310B008F48FEF08950BD0C0CFB1DF28F0B6DF6E
S11310C018F0952309F0A2CFA7CF1124EACFC6DFE9
S11310D0A0F3959FD1F3950F50E0551F629FF00147
S11310E0729FBB27F00DB11D639FAA27F00DB11DA0
S11310F0AA1F649F6627B00DA11D661F829F222729
S1131100B00DA11D621F739FB00DA11D621F839FAF
S1131110A00D611D221F749F3327A00D611D231F85
S1131120849F600D211D822F762F6A2F11249F57D3
S113113050408AF0E1F088234AF0EE0FFF1FBB1FF6
S1131140661F771F881F91505040A9F79E3F510595
S113115070F05CCFA6CF5F3FECF3983EDCF386954E
S113116077956795B795F795E7959F5FC1F7FE2B40
S1131170880F911D9695879597F90895FA01EE0FBA
S1131180FF1F30962105310599F16115710561F450
S11311908038BFE39B0749F168949038810561F07A
S11311A08038BFEF9B0741F0992342F5FF3FE105EB
S11311B03105210511F1E8940894E795D901AA2392
S11311C029F4AB2FBE2FF85FD0F310C0FF5F70F48B
S11311D0A695E0F7F73950F019F0FF3A38F49F7705
S11311E09F930CD00F9007FC905808953EF014CFB5
S11311F060E070E080E89FE308954FE79F775F9396
S11312004F933F932F939ED02F913F914F915F9196
S113121052DF05C019F40EF0F9CE42CFFDCE26DF21
S1131220C8F39638C0F707F80F92E8942BE33AEA2C
S113123048EB5FE74EDF0F920F920F924DB75EB708
S11312400F92C0D0E4E5F0E016D04F915F91EF919A
S1131250FF91E595EE1FFF1F49F0FE57E068442714
S1131260EE0F441FFA95E1F74195550B32D00F90DC
S113127007FE26C00895DF93CF931F930F93FF9229
S1131280EF92DF927B018C01689405C0DA2EEF01A6
S11312901EDFFE01E894A591259135914591559164
S11312A0AEF3EF01CFDDFE019701A801DA9479F7DF
S11312B0DF90EF90FF900F911F91CF91DF910895F0
S11312C09B01AC0160E070E080E89FE3AEC09ECE7D
S11312D014C1CCDEE8F39923D9F3940F511DBBF369
S11312E09150504094F059F0882332F0660F771FE4
S11312F0881F91505040C1F79E3F510544F7880F15
S1131300911D9695879597F908955F3FACF0983EA7
S11313109CF0BB27869577956795B79508F4B160DF
S11313209395C1F7BB0F58F711F460FFE8CF6F5FD7
S11313307F4F8F4F9F4FE3CFB4CE0EF0DEC06CCE05
S1131340689464CE93DEC8F39923D1F3C6F3DF9394
S1131350CF931F930F93FF92C92FDD2788232AF081
S11313602197660F771F881FDAF720E030E040E806
S11313705FEB9FE3883920F0803E30F021968F7731
S113138050DDECE7F0E003C04CDDE9EAF0E073DFA8
S11313908B01BE01EC01FB2E6F5771097595771F08
S11313A0880B990BD4DD28E132E741E35FE38FDE5C
S11313B0AF2D9801AE01FF900F911F91CF91DF9156
S11313C041DD3BCEFA01DC01AA0FBB1F9B01AC013E
S11313D0BF5728F422273327442750781FC0B7511A
S11313E088F4AB2F0024469537952795011CA395C7
S11313F0D2F3002069F0220F331F441FB395DAF3B0
S11314000DD00ECD61307105A0E88A07B94630F4DD
S11314109B01AC016627772788279078309621F0C6
S1131420208331834283538308950CD006CEFEDD9E
S113143040F0F5DD30F021F45F3F19F0E7CD5111B4
S113144030CEEACD0BDE98F39923C9F35523B1F3DB
S1131450951B550BBB27AA2762177307840738F01F
S11314609F5F5F4F220F331F441FAA1FA9F333D07E
S11314700E2E3AF0E0E830D091505040E695001C32
S1131480CAF729D0FE2F27D0660F771F881FBB1FEE
S1131490261737074807AB07B0E809F0BB0B802DC8
S11314A0BF01FF2793585F4F2AF09E3F510568F014
S11314B0ADCDF7CD5F3FECF3983EDCF386957795A1
S11314C06795B795F7959F5FC9F7880F911D969516
S11314D0879597F90895E1E0660F771F881FBB1F72
S11314E0621773078407BA0720F0621B730B840B1F
S11314F0BA0BEE1F88F7E09508959F3F31F09150A5
S113150020F4879577956795B795880F911D9695E3
S1131510879597F9089597FB072E16F4009406D043
S113152077FD08D00BD007FC05D03EF4909581954B
S11315309F4F0895709561957F4F0895AA1BBB1B1B
S113154051E107C0AA1FBB1FA617B70710F0A61BBF
S1131550B70B881F991F5A95A9F780959095BC01E0
S10B1560CD010895F894FFCFBA
S11315680101000102000100010200000001000164
S105157800006D
S9030000FC
