S012000041746D656761323536312E73726563F5
S113000065C0000082C0000080C000007EC0000007
S11300107CC000007AC0000078C0000076C00000F8
S113002074C0000072C0000070C000006EC0000008
S11300306CC000006AC0000068C0000066C0000018
S113004064C0000062C0000060C000005EC0000028
S11300505CC0000084C0000058C0000056C000000E
S113006054C0000052C0000050C000004EC0000048
S11300704CC000004AC0000048C0000046C0000058
S113008044C0000042C0000040C000003EC0000068
S11300903CC000003AC0000038C0000036C0000078
S11300A034C0000032C0000030C000002EC0000088
S11300B02CC000002AC0000028C0000026C0000098
S11300C024C0000022C0000020C0000011241FBE74
S11300D0CFEFD1E2DEBFCDBF00E00CBF12E0A0E065
S11300E0B2E0E4E9F1E000E00BBF02C007900D923A
S11300F0A030B107D9F722E0A0E0B2E001C01D9220
S1130100A430B207E1F723D043C07ACF80E880BFA0
S11301108FE081B980EF82B98FEF84B915B817B831
S113012088B91AB88BB98DB91EB810BA81BB13BA85
S113013084BB089582E080936E007894089582E0F1
S113014084BD83E085BD16BC8AEF87BD0895DEDFDC
S11301501092010210920002F2DFECDFFFCF1F9237
S11301600F920FB60F9211248F939F9380910002E8
S113017090910102009729F00197909301028093D6
S113018000029F918F910F900FBE0F901F901895B2
S1070190F894FFCF0D
S9030000FC
